:060000000A128A11DE2F36
:100E7000193400340A128A1174270A128A110A12CC
:100E80008A11A1270A128A113F2F0A128A110028FB
:100E90007E088A007F0882000A128A1148270A12F7
:100EA0008A118000840A04087D0603190034FF0AB1
:100EB0000319FE0A4C2F48346F346C3461342034EB
:100EC0006D3475346E3464346F342C34203474349F
:100ED00065346E3467346F342034683461346D3473
:100EE000623472346534003401308316031788008D
:100EF00089010130831603138500880183120313CF
:100F0000850188018B170B17831603138C160F08A6
:100F10008F3940388F000F141812181583160317D5
:100F2000871519308316031399009A01831203134E
:100F300098178316031318139816831203131816A1
:100F40000800D02F831203130C1EA72FA82FD02F19
:100F5000F001F101C22F2130F7007630F600F60BD8
:100F6000AF2FF70BAF2F00007008203E84008313D3
:100F700000088312031399000130F0070318F10AE7
:100F80000030F1077108803AFF0080307F02031DB6
:100F9000CB2F1A307002031CCE2FCF2FAB2FA12FD7
:100FA0007108803AFF0080307F02031DD92F1A306C
:100FB0007002031CDC2FDD2FA22F080083133930B1
:100FC000FD000730FE005B30FF00203084000A1275
:100FD0008A114C270A128A110A128A1138270A121A
:100FE0008A11F4000A128A1139270A128A11F500AF
:100FF000F001F101F201F30183010A128A113A2F83
:08400000FF3FFF3FFF3FFF3FC0
:04400E00D420FF3F7C
:00000001FF
